:100000000EC015C014C013C012C011C010C00FC064
:100010000EC00DC00CC00BC00BC009C008C011241D
:100020001FBECFE5D1E0DEBFCDBF13D037C0E8CFD4
:100030001F920F920FB60F9211248F93C49A85E0EE
:100040008A95F1F7C4988F910F900FBE0F901F9073
:1000500018950FB6F894A89581B5886181BD11BC3B
:100060000FBE80E890E00FB6F89486BD96BD0FBE37
:1000700081B5806481BD7894BC9A80B58F6080BD65
:1000800085B7877E806185BF85B7806285BF85B76C
:10009000806285BF889585B78F7DF8CFF894FFCFB4
:00000001FF
